{
  "contractName": "HelloWorld",
  "abi": [
    {
      "inputs": [],
      "payable": false,
      "stateMutability": "nonpayable",
      "type": "constructor"
    },
    {
      "anonymous": false,
      "inputs": [
        {
          "indexed": false,
          "internalType": "string",
          "name": "message",
          "type": "string"
        },
        {
          "indexed": false,
          "internalType": "string",
          "name": "sender",
          "type": "string"
        }
      ],
      "name": "Message",
      "type": "event"
    },
    {
      "constant": true,
      "inputs": [
        {
          "internalType": "uint256",
          "name": "",
          "type": "uint256"
        }
      ],
      "name": "meeasgeList",
      "outputs": [
        {
          "internalType": "string",
          "name": "",
          "type": "string"
        }
      ],
      "payable": false,
      "stateMutability": "view",
      "type": "function"
    },
    {
      "constant": true,
      "inputs": [
        {
          "internalType": "uint256",
          "name": "",
          "type": "uint256"
        }
      ],
      "name": "registeredArray",
      "outputs": [
        {
          "internalType": "address",
          "name": "message",
          "type": "address"
        },
        {
          "internalType": "string",
          "name": "sender",
          "type": "string"
        },
        {
          "internalType": "string",
          "name": "receiver",
          "type": "string"
        }
      ],
      "payable": false,
      "stateMutability": "view",
      "type": "function"
    },
    {
      "constant": true,
      "inputs": [
        {
          "internalType": "uint256",
          "name": "",
          "type": "uint256"
        }
      ],
      "name": "senderList",
      "outputs": [
        {
          "internalType": "string",
          "name": "",
          "type": "string"
        }
      ],
      "payable": false,
      "stateMutability": "view",
      "type": "function"
    },
    {
      "constant": true,
      "inputs": [],
      "name": "yourName",
      "outputs": [
        {
          "internalType": "string",
          "name": "",
          "type": "string"
        }
      ],
      "payable": false,
      "stateMutability": "view",
      "type": "function"
    },
    {
      "constant": true,
      "inputs": [],
      "name": "getmeeasgeList",
      "outputs": [
        {
          "internalType": "string[]",
          "name": "",
          "type": "string[]"
        }
      ],
      "payable": false,
      "stateMutability": "view",
      "type": "function"
    },
    {
      "constant": true,
      "inputs": [],
      "name": "getsenderList",
      "outputs": [
        {
          "internalType": "string[]",
          "name": "",
          "type": "string[]"
        }
      ],
      "payable": false,
      "stateMutability": "view",
      "type": "function"
    },
    {
      "constant": false,
      "inputs": [
        {
          "internalType": "string",
          "name": "newValue",
          "type": "string"
        },
        {
          "internalType": "string",
          "name": "sender",
          "type": "string"
        },
        {
          "internalType": "string",
          "name": "receiver",
          "type": "string"
        }
      ],
      "name": "pushTomeeasgeList",
      "outputs": [],
      "payable": false,
      "stateMutability": "nonpayable",
      "type": "function"
    },
    {
      "constant": false,
      "inputs": [
        {
          "internalType": "string",
          "name": "nm",
          "type": "string"
        }
      ],
      "name": "setName",
      "outputs": [],
      "payable": false,
      "stateMutability": "nonpayable",
      "type": "function"
    },
    {
      "constant": false,
      "inputs": [
        {
          "internalType": "address",
          "name": "_address",
          "type": "address"
        },
        {
          "internalType": "string",
          "name": "_name",
          "type": "string"
        },
        {
          "internalType": "string",
          "name": "_password",
          "type": "string"
        }
      ],
      "name": "register",
      "outputs": [
        {
          "internalType": "bool",
          "name": "",
          "type": "bool"
        }
      ],
      "payable": false,
      "stateMutability": "nonpayable",
      "type": "function"
    },
    {
      "constant": false,
      "inputs": [
        {
          "internalType": "address",
          "name": "_address",
          "type": "address"
        },
        {
          "internalType": "string",
          "name": "_password",
          "type": "string"
        }
      ],
      "name": "login",
      "outputs": [
        {
          "internalType": "bool",
          "name": "",
          "type": "bool"
        }
      ],
      "payable": false,
      "stateMutability": "nonpayable",
      "type": "function"
    },
    {
      "constant": true,
      "inputs": [
        {
          "internalType": "address",
          "name": "_address",
          "type": "address"
        }
      ],
      "name": "checkIsUserLogged",
      "outputs": [
        {
          "internalType": "bool",
          "name": "",
          "type": "bool"
        }
      ],
      "payable": false,
      "stateMutability": "view",
      "type": "function"
    },
    {
      "constant": false,
      "inputs": [
        {
          "internalType": "address",
          "name": "_address",
          "type": "address"
        }
      ],
      "name": "logout",
      "outputs": [],
      "payable": false,
      "stateMutability": "nonpayable",
      "type": "function"
    },
    {
      "constant": true,
      "inputs": [],
      "name": "getUserList",
      "outputs": [
        {
          "components": [
            {
              "internalType": "address",
              "name": "message",
              "type": "address"
            },
            {
              "internalType": "string",
              "name": "sender",
              "type": "string"
            },
            {
              "internalType": "string",
              "name": "receiver",
              "type": "string"
            }
          ],
          "internalType": "struct HelloWorld.UserAddressName[]",
          "name": "",
          "type": "tuple[]"
        }
      ],
      "payable": false,
      "stateMutability": "view",
      "type": "function"
    }
  ],
  "bytecode": "0x60806040523480156200001157600080fd5b506040518060400160405280600881526020017f556e6b6e6f77666e000000000000000000000000000000000000000000000000815250600090805190602001906200005f92919062000066565b5062000115565b828054600181600116156101000203166002900490600052602060002090601f016020900481019282601f10620000a957805160ff1916838001178555620000da565b82800160010185558215620000da579182015b82811115620000d9578251825591602001919060010190620000bc565b5b509050620000e99190620000ed565b5090565b6200011291905b808211156200010e576000816000905550600101620000f4565b5090565b90565b6117f480620001256000396000f3fe608060405234801561001057600080fd5b50600436106100ec576000357c01000000000000000000000000000000000000000000000000000000009004806394c43d03116100a9578063cc51f9b911610083578063cc51f9b914610257578063d40afcb114610273578063d97d6630146102a5578063e1f91bf4146102c3576100ec565b806394c43d03146101ed578063b85220431461021d578063c47f00271461023b576100ec565b8063297f7b39146100f15780632f19d50b146101215780633bccd59f14610151578063492ddfb11461016f5780637038b9331461019f5780638d59cc02146101bd575b600080fd5b61010b60048036036101069190810190610f9d565b6102df565b6040516101189190611551565b60405180910390f35b61013b60048036036101369190810190610fc6565b610338565b6040516101489190611551565b60405180910390f35b61015961048c565b604051610166919061150d565b60405180910390f35b61018960048036036101849190810190611171565b610575565b604051610196919061156c565b60405180910390f35b6101a761062e565b6040516101b4919061150d565b60405180910390f35b6101d760048036036101d2919081019061101a565b610717565b6040516101e49190611551565b60405180910390f35b61020760048036036102029190810190611171565b6108ae565b604051610214919061156c565b60405180910390f35b610225610967565b604051610232919061152f565b60405180910390f35b61025560048036036102509190810190611099565b610b60565b005b610271600480360361026c9190810190610f9d565b610b7a565b005b61028d60048036036102889190810190611171565b610bd8565b60405161029c939291906114c8565b60405180910390f35b6102ad610d5f565b6040516102ba919061156c565b60405180910390f35b6102dd60048036036102d891908101906110da565b610dfd565b005b6000600460008373ffffffffffffffffffffffffffffffffffffffff1673ffffffffffffffffffffffffffffffffffffffff16815260200190815260200160002060040160009054906101000a900460ff169050919050565b60008160405160200161034b919061149a565b60405160208183030381529060405280519060200120600460008573ffffffffffffffffffffffffffffffffffffffff1673ffffffffffffffffffffffffffffffffffffffff1681526020019081526020016000206002016040516020016103b391906114b1565b604051602081830303815290604052805190602001201415610481576001600460008573ffffffffffffffffffffffffffffffffffffffff1673ffffffffffffffffffffffffffffffffffffffff16815260200190815260200160002060040160006101000a81548160ff021916908315150217905550600460008473ffffffffffffffffffffffffffffffffffffffff1673ffffffffffffffffffffffffffffffffffffffff16815260200190815260200160002060040160009054906101000a900460ff169050610486565b600090505b92915050565b60606002805480602002602001604051908101604052809291908181526020016000905b8282101561056c578382906000526020600020018054600181600116156101000203166002900480601f0160208091040260200160405190810160405280929190818152602001828054600181600116156101000203166002900480156105585780601f1061052d57610100808354040283529160200191610558565b820191906000526020600020905b81548152906001019060200180831161053b57829003601f168201915b5050505050815260200190600101906104b0565b50505050905090565b6002818154811061058257fe5b906000526020600020016000915090508054600181600116156101000203166002900480601f0160208091040260200160405190810160405280929190818152602001828054600181600116156101000203166002900480156106265780601f106105fb57610100808354040283529160200191610626565b820191906000526020600020905b81548152906001019060200180831161060957829003601f168201915b505050505081565b60606001805480602002602001604051908101604052809291908181526020016000905b8282101561070e578382906000526020600020018054600181600116156101000203166002900480601f0160208091040260200160405190810160405280929190818152602001828054600181600116156101000203166002900480156106fa5780601f106106cf576101008083540402835291602001916106fa565b820191906000526020600020905b8154815290600101906020018083116106dd57829003601f168201915b505050505081526020019060010190610652565b50505050905090565b600083600460008673ffffffffffffffffffffffffffffffffffffffff1673ffffffffffffffffffffffffffffffffffffffff16815260200190815260200160002060000160006101000a81548173ffffffffffffffffffffffffffffffffffffffff021916908373ffffffffffffffffffffffffffffffffffffffff16021790555082600460008673ffffffffffffffffffffffffffffffffffffffff1673ffffffffffffffffffffffffffffffffffffffff16815260200190815260200160002060010190805190602001906107f0929190610e7a565b5081600460008673ffffffffffffffffffffffffffffffffffffffff1673ffffffffffffffffffffffffffffffffffffffff1681526020019081526020016000206002019080519060200190610847929190610e7a565b506000600460008673ffffffffffffffffffffffffffffffffffffffff1673ffffffffffffffffffffffffffffffffffffffff16815260200190815260200160002060040160006101000a81548160ff021916908315150217905550600190509392505050565b600181815481106108bb57fe5b906000526020600020016000915090508054600181600116156101000203166002900480601f01602080910402602001604051908101604052809291908181526020018280546001816001161561010002031660029004801561095f5780601f106109345761010080835404028352916020019161095f565b820191906000526020600020905b81548152906001019060200180831161094257829003601f168201915b505050505081565b60606003805480602002602001604051908101604052809291908181526020016000905b82821015610b5757838290600052602060002090600302016040518060600160405290816000820160009054906101000a900473ffffffffffffffffffffffffffffffffffffffff1673ffffffffffffffffffffffffffffffffffffffff1673ffffffffffffffffffffffffffffffffffffffff168152602001600182018054600181600116156101000203166002900480601f016020809104026020016040519081016040528092919081815260200182805460018160011615610100020316600290048015610a9d5780601f10610a7257610100808354040283529160200191610a9d565b820191906000526020600020905b815481529060010190602001808311610a8057829003601f168201915b50505050508152602001600282018054600181600116156101000203166002900480601f016020809104026020016040519081016040528092919081815260200182805460018160011615610100020316600290048015610b3f5780601f10610b1457610100808354040283529160200191610b3f565b820191906000526020600020905b815481529060010190602001808311610b2257829003601f168201915b5050505050815250508152602001906001019061098b565b50505050905090565b8060009080519060200190610b76929190610e7a565b5050565b6000600460008373ffffffffffffffffffffffffffffffffffffffff1673ffffffffffffffffffffffffffffffffffffffff16815260200190815260200160002060040160006101000a81548160ff02191690831515021790555050565b60038181548110610be557fe5b90600052602060002090600302016000915090508060000160009054906101000a900473ffffffffffffffffffffffffffffffffffffffff1690806001018054600181600116156101000203166002900480601f016020809104026020016040519081016040528092919081815260200182805460018160011615610100020316600290048015610cb75780601f10610c8c57610100808354040283529160200191610cb7565b820191906000526020600020905b815481529060010190602001808311610c9a57829003601f168201915b505050505090806002018054600181600116156101000203166002900480601f016020809104026020016040519081016040528092919081815260200182805460018160011615610100020316600290048015610d555780601f10610d2a57610100808354040283529160200191610d55565b820191906000526020600020905b815481529060010190602001808311610d3857829003601f168201915b5050505050905083565b60008054600181600116156101000203166002900480601f016020809104026020016040519081016040528092919081815260200182805460018160011615610100020316600290048015610df55780601f10610dca57610100808354040283529160200191610df5565b820191906000526020600020905b815481529060010190602001808311610dd857829003601f168201915b505050505081565b6001839080600181540180825580915050906001820390600052602060002001600090919290919091509080519060200190610e3a929190610e7a565b50507f8252da6cc8ba70656d63b4439295f2de59ffee7cf90c96f5aee10857159474e78383604051610e6d92919061158e565b60405180910390a1505050565b828054600181600116156101000203166002900490600052602060002090601f016020900481019282601f10610ebb57805160ff1916838001178555610ee9565b82800160010185558215610ee9579182015b82811115610ee8578251825591602001919060010190610ecd565b5b509050610ef69190610efa565b5090565b610f1c91905b80821115610f18576000816000905550600101610f00565b5090565b90565b600081359050610f2e81611783565b92915050565b600082601f830112610f4557600080fd5b8135610f58610f53826115f2565b6115c5565b91508082526020830160208301858383011115610f7457600080fd5b610f7f838284611730565b50505092915050565b600081359050610f978161179a565b92915050565b600060208284031215610faf57600080fd5b6000610fbd84828501610f1f565b91505092915050565b60008060408385031215610fd957600080fd5b6000610fe785828601610f1f565b925050602083013567ffffffffffffffff81111561100457600080fd5b61101085828601610f34565b9150509250929050565b60008060006060848603121561102f57600080fd5b600061103d86828701610f1f565b935050602084013567ffffffffffffffff81111561105a57600080fd5b61106686828701610f34565b925050604084013567ffffffffffffffff81111561108357600080fd5b61108f86828701610f34565b9150509250925092565b6000602082840312156110ab57600080fd5b600082013567ffffffffffffffff8111156110c557600080fd5b6110d184828501610f34565b91505092915050565b6000806000606084860312156110ef57600080fd5b600084013567ffffffffffffffff81111561110957600080fd5b61111586828701610f34565b935050602084013567ffffffffffffffff81111561113257600080fd5b61113e86828701610f34565b925050604084013567ffffffffffffffff81111561115b57600080fd5b61116786828701610f34565b9150509250925092565b60006020828403121561118357600080fd5b600061119184828501610f88565b91505092915050565b60006111a68383611343565b905092915050565b60006111ba8383611443565b905092915050565b6111cb816116e8565b82525050565b6111da816116e8565b82525050565b60006111eb82611653565b6111f58185611699565b9350836020820285016112078561161e565b8060005b858110156112435784840389528151611224858261119a565b945061122f8361167f565b925060208a0199505060018101905061120b565b50829750879550505050505092915050565b60006112608261165e565b61126a81856116aa565b93508360208202850161127c8561162e565b8060005b858110156112b8578484038952815161129985826111ae565b94506112a48361168c565b925060208a01995050600181019050611280565b50829750879550505050505092915050565b6112d3816116fa565b82525050565b60006112e482611674565b6112ee81856116cc565b93506112fe81856020860161173f565b61130781611772565b840191505092915050565b600061131d82611674565b61132781856116dd565b935061133781856020860161173f565b80840191505092915050565b600061134e82611669565b61135881856116bb565b935061136881856020860161173f565b61137181611772565b840191505092915050565b600061138782611669565b61139181856116cc565b93506113a181856020860161173f565b6113aa81611772565b840191505092915050565b6000815460018116600081146113d257600181146113f75761143b565b607f60028304166113e381876116dd565b955060ff198316865280860193505061143b565b6002820461140581876116dd565b95506114108561163e565b60005b8281101561143257815481890152600182019150602081019050611413565b82880195505050505b505092915050565b600060608301600083015161145b60008601826111c2565b50602083015184820360208601526114738282611343565b9150506040830151848203604086015261148d8282611343565b9150508091505092915050565b60006114a68284611312565b915081905092915050565b60006114bd82846113b5565b915081905092915050565b60006060820190506114dd60008301866111d1565b81810360208301526114ef818561137c565b90508181036040830152611503818461137c565b9050949350505050565b6000602082019050818103600083015261152781846111e0565b905092915050565b600060208201905081810360008301526115498184611255565b905092915050565b600060208201905061156660008301846112ca565b92915050565b60006020820190508181036000830152611586818461137c565b905092915050565b600060408201905081810360008301526115a881856112d9565b905081810360208301526115bc81846112d9565b90509392505050565b6000604051905081810181811067ffffffffffffffff821117156115e857600080fd5b8060405250919050565b600067ffffffffffffffff82111561160957600080fd5b601f19601f8301169050602081019050919050565b6000819050602082019050919050565b6000819050602082019050919050565b60008190508160005260206000209050919050565b600081519050919050565b600081519050919050565b600081519050919050565b600081519050919050565b6000602082019050919050565b6000602082019050919050565b600082825260208201905092915050565b600082825260208201905092915050565b600082825260208201905092915050565b600082825260208201905092915050565b600081905092915050565b60006116f382611706565b9050919050565b60008115159050919050565b600073ffffffffffffffffffffffffffffffffffffffff82169050919050565b6000819050919050565b82818337600083830152505050565b60005b8381101561175d578082015181840152602081019050611742565b8381111561176c576000848401525b50505050565b6000601f19601f8301169050919050565b61178c816116e8565b811461179757600080fd5b50565b6117a381611726565b81146117ae57600080fd5b5056fea365627a7a723158208fde028e1e98967c35c99bb96862b75491f833c32d8f87a2145db9f0ca87d66b6c6578706572696d656e74616cf564736f6c63430005100040",
  "source": "pragma solidity ^0.5.9;\npragma experimental ABIEncoderV2;\n\n\ncontract HelloWorld {\n\n\n\n  string public yourName ;\n\n\n\n    struct UserDetail {\n        address addr;\n        string name;\n        string password;\n        string CNIC;\n        bool isUserLoggedIn;\n    }\n\n\n    struct UserAddressName {\n        address message;\n        string sender;\n        string receiver;\n\n    }\n\n    string [] public  meeasgeList;\n    string [] public  senderList;\n\n    UserAddressName [] public registeredArray; // added the array\n    mapping(address => UserDetail) user;\n\n\n    event Message(string   message , string sender);\n\n\n    constructor() public {\n        yourName = \"Unknowfn\" ;\n        }\n\n    function getmeeasgeList() public view returns (string[] memory) {\n        return meeasgeList;\n    }\n    function getsenderList() public view returns (string[] memory) {\n        return senderList;\n    }\n    function pushTomeeasgeList(string memory newValue ,string memory   sender,string memory   receiver) public {\n\n        meeasgeList.push(newValue );\n//        senderList.push(sender );\n\n        emit Message(newValue,sender);\n    }\n\n    function setName(string memory nm) public{\n        yourName = nm ;\n    }\n    // user registration function\n    function register(\n        address _address,\n        string memory _name,\n        string memory _password\n\n    ) public returns (bool) {\n//        require(user[_address].addr != msg.sender);\n        user[_address].addr = _address;\n        user[_address].name = _name;\n        user[_address].password = _password;\n        user[_address].isUserLoggedIn = false;\n\n//        UserAddressName memory myStruct = ;\n     //   registeredArray.push(UserAddressName(_address,_name));\n\n        return true;\n    }\n\n    // user login function\n    function login(address _address, string memory _password)\n    public\n    returns (bool)\n    {\n        if (\n            keccak256(abi.encodePacked(user[_address].password)) ==\n            keccak256(abi.encodePacked(_password))\n        ) {\n            user[_address].isUserLoggedIn = true;\n            return user[_address].isUserLoggedIn;\n        } else {\n            return false;\n        }\n    }\n\n    // check the user logged In or not\n    function checkIsUserLogged(address _address) public view returns (bool) {\n        return (user[_address].isUserLoggedIn);\n    }\n\n    // logout the user\n    function logout(address _address) public {\n        user[_address].isUserLoggedIn = false;\n    }\n\n    function getUserList() public view returns (UserAddressName[] memory) {\n        return registeredArray;\n    }\n}\n\n\n\n\n",
  "sourcePath": "/Users/zaid/WebStromProjects/truffle/contracts/HelloWorld.sol",
  "compiler": {
    "name": "solc",
    "version": "0.5.16+commit.9c3226ce.Emscripten.clang"
  },
  "schemaVersion": "3.2.3",
  "updatedAt": "2021-12-18T12:56:24.983Z",
  "networkType": "ethereum",
  "devdoc": {
    "methods": {}
  },
  "userdoc": {
    "methods": {}
  }
}